:100000006F00402B000000002403000032030000BA
:1000100000000000000000000000000000000000E0
:1000200000000000000000000000000000000000D0
:100030003203000000000000320300000000000056
:1000400032030000320300003203000032030000DC
:1000500032030000320300003203000032030000CC
:1000600032030000320300003203000032030000BC
:1000700032030000320300003203000032030000AC
:10008000320300003203000032030000BA07000010
:1000900032030000320300003203000000000000C1
:1000A000634E050263C305042E86AA857D5515C2DD
:1000B00085466378B6006356C00006068606E36C84
:1000C000B6FE014563E4C500918D558D858205829C
:1000D000F5FA82808682C93F2E8582823305A04050
:1000E0006347B000B305B040C1B7B305B0408682E6
:1000F000653F3305A0408282868263C7050063495D
:1001000005005D372E858282B305B040E35B05FEB6
:100110003305A040513F3305B040828200003111C9
:1001200026C406C822C6AE84AA87B2850143ADCADA
:1001300063D49600B6840543338496406353040029
:10014000014422863A853EC21AC0F52602439247F0
:100150002A87B30685000146B385C4406344B004D2
:1001600063D304008144338696003305E64063047C
:1001700003026372C7029307A002A30FF6FE930661
:10018000F6FF637AD700230FF6FE9306E6FF63744B
:10019000D700A30EF6FEC2403244A2445101828031
:1001A000A68659BFB385C70003C50500B385C60041
:1001B00005062380A5004DB7011106CE22CC26CA24
:1001C00002C02A836357050089E685473303A040B0
:1001D0003EC01304100619C213041004BA84591443
:1001E0001A853AC81AC22EC61AC4ED35A54722434D
:1001F000B24542479376F50F63E1A706938606035F
:1002000093F6F60F938714002380D4001A853AC81A
:100210003EC62EC4513D9246A245B24742472A836C
:1002200063FBB602824699C69306D0022380D700AC
:10023000938724003385E7409356F501AA962380DF
:10024000070085860146FD17634BD600F2406244E5
:10025000D24405618280BE8461B7A29655B7B305CA
:10026000C70083C2070003C30500050623805500AD
:1002700023806700C9BF2A8781472E853746014002
:1002800063C3A70082808326068093F60604E5DE1A
:10029000B306F70083C6060085072322D680CDB7B4
:1002A000511122C206C42E84F937A240228512447D
:1002B0003101828097010020938181141381414094
:1002C000096513050588731005308D461705000074
:1002D000130545D3558D73105530138541C0938553
:1002E000C1C001466356B50010C11105E34EB5FE0D
:1002F000170500001305855E938541C0138641C034
:100300006388C500144194C111059105E39AC5FEA7
:10031000B7F700E0054798C3930700677390173459
:1003200073002030371702401C47B7068000D58F76
:100330001CC773251034A12C73250030892C73251C
:100340003034B1247325203499242945252401A073
:10035000AA8703C7070001E73385A7408280850786
:10036000CDBF130141FAA6C886CCA2CA2AC02EC2AC
:10037000B284B68702C803C7040013841400A30F15
:10038000E10001EBE64056444245C6441301C10575
:10039000828093065002630FD7003EC41246824704
:1003A00085451305F1018297A284C247AA973EC8EA
:1003B000A247D1B783C61400130600031387240095
:1003C000A30FD100130400036390C608BA8401464A
:1003D0000147254511A8931627008504369783C643
:1003E000F4FF06072E970546938506FD13F3F50FD8
:1003F000E37365FE19C2A30FD1003AC66146635389
:10040000E60032C69305C00601466398B60083C66F
:10041000040005468504A30FD1008346F10193052E
:1004200040066383B60663E4D50213078005638044
:10043000E60A13073006638DE60AA9D612463EC4C3
:1004400085451305F101BDA01304000241B79305D2
:100450005007638BB60213068007638AC60613062D
:100460003007E39DC6FC3ACC138747009C433AC44F
:100470003E853ECAF13D6247D247AA8559C7B2467A
:10048000381822863E851DA0138747003AC415C63A
:100490009386B6F8181093B6160088430146A9450E
:1004A000213BB24638182286AA8508108D3912469B
:1004B000AA85281882478297CDBD130750076395F8
:1004C000E60018108546D1BF18108146F9B7884359
:1004D00013874700138686FA3AC4854618101336E8
:1004E0001600C145D139B246AA853818228675BF93
:1004F000138747009C433AC4B246A30FF100381853
:10050000228685451305F10155B712463E855DB734
:100510001301C1FD32CA2A862EC836CC8145140883
:100520001305002A06C63ACE3ED036C01D3DB24065
:100530001301410282802A96AA876393C7008280B2
:100540002380B7008507D5BF511106C422C226C03B
:10055000AA84FD3B2A84AA852685313B056585450D
:1005600013054585093BA24013051400124482443B
:1005700031018280374701408327078093F70704C2
:10058000E5DF1375F50F2322A78005458280511101
:1005900026C0AA841305000206C422C2E13F130547
:1005A0000003C93F13058007F1377144B3D78400B6
:1005B000BD8B2547130500036354F7001305700531
:1005C0003E954D3F7114F157E312F4FEA2401244E0
:1005D000824431018280B7270240054798C3B7178C
:1005E00002403707080123A207001307170898C322
:1005F00037079F0098C7B7060002371702401C4311
:10060000F58FF5DF5C432146F19B93E727005CC340
:10061000B7170240D843318BE31EC7FE984F91664F
:1006200093860602558F98CFB717014003A707405E
:10063000B70610FFFD16758F23A0E74003A70740FC
:10064000B7069000558F23A0E740B747014023A687
:10065000C78023A8078023AA07801307000D23A4BF
:10066000E78003A7C7808966558F23A6E78082802D
:10067000511106C422C28537056513058585E93504
:10068000B7170240D843C1769386F67F758FD8C3DB
:10069000984F37160140B706F1FF1367072298CF2E
:1006A00003270640FD1637240140758F2320E640BE
:1006B000D84705651305858813670720D8C7D8472D
:1006C0001377F7DFD8C723260442232804429D4727
:1006D000232AF44283270441370720FF7D17F98F2F
:1006E0002328F440832704413707E000D98F2328CB
:1006F000F440B7070E0085072324F440B135832763
:100700008440B726014093E787002324F44003A7E1
:100710008640218B6DFF03A786401367470023A403
:10072000E6403727014083278740918BEDFF056521
:100730001305C589113D05651305458B3135B71680
:1007400002409C4E056713070780D98F9CCE373730
:100750000140835607C021460565C206C1822310A9
:10076000D7C0930600022312D7C0930600052316B4
:10077000D7C2A5462314D7C2231807C28546231A19
:10078000D7C0B7E600E023A2C610F9562318D7C099
:100790008356C7C0B1451305C58CC206C18293E616
:1007A00016002316D7C0835707C0C207C18393E73B
:1007B00017002310F7C0A93B01A079713EC0B737DD
:1007C00001403AC203D707C106D616D41AD21ED0AA
:1007D00022CE26CC2ACA2EC832C636C4058B39CBC7
:1007E000938707C079572398E700B727014003A5EF
:1007F000C744138481C01C40938441C0130505E0A5
:100800003E959C4008C0214785079CC0639BE7003C
:100810000D851305F50708C0B13B2320040023A074
:100820000400B727014003A78740B7064000558F53
:1008300023A4E7407244B250A25212538253E244BE
:100840005245C2453246A24612478247456173006F
:10085000203000000A000000496E697469616C690B
:100860007A696E67204144432E2E2E2028626A73D7
:100870002070696E205044342049207468696E6B82
:100880002E2E2E290D00000043616C696272617486
:10089000696E67204144432E2E2E0D0043616C6922
:1008A00062726174696E6720646F6E652E2E2E0D04
:1008B00000000000496E697469616C697A696E674D
:1008C0002074696D65722E2E2E0D000068657265AC
:0808D0002025640A000000006D
:00000001FF
